:100000000C9434000C943E000C943E000C943E0082
:100010000C943E000C943E000C943E000C943E0068
:100020000C943E000C943E000C943E000C943E0058
:100030000C943E000C943E000C943E000C943E0048
:100040000C943E000C943E000C943E000C943E0038
:100050000C943E000C943E000C943E000C943E0028
:100060000C943E000C943E0011241FBECFEFD8E04C
:10007000DEBFCDBF0E9440000C9461000C940000D4
:1000800081E08AB91BB881E08BB920E009C08EB34A
:1000900081508EBB9F5F01C090E09531C0F32F5F10
:1000A0002230D0F31BB820E009C08EB381508EBB44
:1000B0009F5F01C090E09A30C0F32F5F2223D1F3FD
:0600C000E2CFF894FFCF2F
:00000001FF
