:100000000C9443000C94A7020C94A7020C94A70232
:100010000C94A7020C94A7020C94A7020C94A702BC
:100020000C94A7020C94A7020C94A7020C94A702AC
:100030000C94A7020C94A7020C94A7020C94A7029C
:100040000C94A7020C94A7020C94A7020C94A7028C
:100050000C94A7020C94A7020C94A7020C94A7027C
:100060000C94A7020C94A70205A84CCDB2D44EB9AB
:100070003836A9020C50B9918688083CA6AAAA2A4B
:10008000BE000000803F11241FBECFEFD8E0DEBFCE
:0E009000CDBF0E945D010C944D00F894FFCF8F
:10009E000FC00E94870238F00E948E0220F0952336
:1000AE0011F00C9495020C94A40211240C9481026C
:1000BE000E94170270F3959FC1F3950F50E0551FE4
:1000CE00629FF001729FBB27F00DB11D639FAA279F
:1000DE00F00DB11DAA1F649F6627B00DA11D661FEE
:1000EE00829F2227B00DA11D621F739FB00DA11D0F
:1000FE00621F839FA00D611D221F749F3327A00DC9
:10010E00611D231F849F600D211D822F762F6A2F64
:10011E0011249F5750409AF0F1F088234AF0EE0FC9
:10012E00FF1FBB1F661F771F881F91505040A9F7F6
:10013E009E3F510580F00C9495020C9481025F3F16
:10014E00E4F3983ED4F3869577956795B795F79532
:10015E00E7959F5FC1F7FE2B880F911D96958795AA
:04016E0097F9089560
:1001720011C00E94870238F00E948E0220F039F4EA
:100182009F3F19F426F40C94A4020EF4E095E7FBC9
:100192000C949502E92F0E94170258F3BA176207CE
:1001A20073078407950720F079F4A6F50C94800272
:1001B2000EF4E0950B2EBA2FA02D0B01B901900180
:1001C2000C01CA01A0011124FF27591B99F0593FC4
:1001D20050F4503E68F11A16F040A22F232F342F0C
:1001E2004427585FF3CF469537952795A795F0405A
:1001F2005395C9F77EF41F16BA0B620B730B840B6F
:10020200BAF09150A1F0FF0FBB1F661F771F881F26
:10021200C2F70EC0BA0F621F731F841F48F487957E
:1002220077956795B795F7959E3F08F0B0CF939570
:0E023200880F08F09927EE0F9795879508958D
:10024000E89409C097FB3EF4909580957095619570
:100250007F4F8F4F9F4F9923A9F0F92F96E9BB2726
:100260009395F695879577956795B795F111F8CFA2
:10027000FAF4BB0F11F460FF1BC06F5F7F4F8F4F0D
:100280009F4F16C0882311F096E911C0772321F003
:100290009EE8872F762F05C0662371F096E8862F9B
:1002A00070E060E02AF09A95660F771F881FDAF7F2
:0A02B000880F9695879597F9089539
:1002BA008FEF8AB9CCE4DFEF30C0BE010D2E000CFF
:1002CA00880B990B0E94220125E33AEF4EE85CE382
:1002DA000E94A0026B017C0120E030E040E851E47A
:1002EA000E94A0020E949B024B015C01C701B60159
:1002FA000E949B029B01AC01C501B4010E94A002AD
:10030A0020E030E04EEF52E40E94A0020E949601E3
:10031A0070E061587F4F6BB92196C53BD1056CF2ED
:02032A00C9CF39
:10032C000E941F0288F09F5798F0B92F9927B75158
:10033C00B0F0E1F0660F771F881F991F1AF0BA957D
:10034C00C9F714C0B13091F00E948002B1E0089559
:10035C000C948002672F782F8827B85F39F0B93F4B
:10036C00CCF3869577956795B395D9F73EF4909530
:0E037C008095709561957F4F8F4F9F4F08952C
:10038A000E941F0210F40C94A402E894E0E0BB2738
:10039A009F57F0F02AED3FE049EC06C0EE0FBB0F85
:1003AA00661F771F881F28F0B23A6207730784070F
:1003BA0028F0B25A620B730B840BE3959A9572F785
:1003CA00803830F49A95BB0F661F771F881FD2F7C3
:0603DA0090480C9474022F
:1003E000DF93CF931F930F93FF92EF92DF927B01E6
:1003F0008C01689406C0DA2EEF010E944F00FE01C6
:10040000E894A5912591359145915591A6F3EF0179
:100410000E94B900FE019701A801DA9469F7DF9004
:0E042000EF90FF900F911F91CF91DF91089503
:10042E0057FD9058440F551F59F05F3F71F0479597
:10043E00880F97FB991F61F09F3F79F0879508957C
:10044E00121613061406551FF2CF4695F1DF08C09B
:10045E00161617061806991FF1CF869571056105B8
:04046E000894089551
:10047200EF93E0FF07C0A2EA2AED3FE049EC5FEB11
:100482000E94B9000E9461020F90039401FC9058EF
:08049200E8E6F0E00C944D02D5
:10049A009F938F937F936F93FF93EF939B01AC018D
:1004AA000E94A002EF91FF910E94F0012F913F91CB
:0804BA004F915F910C94A00228
:1004C200092E0394000C11F4882352F0BB0F40F460
:1004D200BF2B11F460FF04C06F5F7F4F8F4F9F4FA0
:0204E20008957B
:1004E4009F3F31F0915020F4879577956795B795A4
:0C04F400880F911D9695879597F9089543
:0E050000E894BB2766277727CB0197F908956B
:0E050E0000240A94161617061806090608950A
:0E051C0000240A94121613061406050608950C
:0C052A0097F99F6780E870E060E008959A
:0A0536000E94C501E3950C94390200
:080540000E944F000C946102BF
:060548009FEF80EC089516
:04054E000C94000009
:00000001FF
