S01D000074696D65725F63656E7472616C5F616C61726D65732E737265635A
S11300000C9434000C943E000C943E000C943E007E
S11300100C943E000C943E000C943E000C943E0064
S11300200C943E000C943E000C943E000C945B0037
S11300300C943E000C943E000C943E000C943E0044
S11300400C943E000C943E000C943E000C943E0034
S11300500C943E000C943E000C943E000C943E0024
S11300600C943E000C943E0011241FBECFEFD8E048
S1130070DEBFCDBF0E9454000C946A000C940000B3
S1130080E1E8F0E080818460808382E19AE79093E4
S1130090890080938800808188608083EFE6F0E0A7
S11300A080818260808308958FEF8AB91BB80E9493
S11300B040007894FFCF1F920F920FB60F92112435
S11300C08F938BB18F5F8BB98F910F900FBE0F9071
S10B00D01F901895F894FFCF6E
S9030000FC
