:100000000C9434000C943E000C943E000C943E0082
:100010000C943E000C943E000C943E000C943E0068
:100020000C943E000C943E000C943E000C943E0058
:100030000C943E000C943E000C943E000C943E0048
:100040000C943E000C943E000C943E000C943E0038
:100050000C943E000C943E000C943E000C943E0028
:100060000C943E000C943E0011241FBECFEFD8E04C
:10007000DEBFCDBF0E9440000C94D1000C94000064
:100080008FEF8AB9ECE7F0E0808180668083EAE751
:10009000F0E0808187608083EAE7F0E08081806C17
:1000A000808380818083809179004BB1982F991F44
:1000B0009927991F292F30E03695322F222737951F
:1000C0002795242B2BB988230CF48F774BB1982FCD
:1000D000929596959695937050E4959F9001112472
:1000E000242B2BB9803408F08F734BB1982F929545
:1000F0009695977050E2959F90011124242B2BB96F
:10010000803208F08F714BB1982F92959F7050E11B
:10011000959F90011124242B2BB9803108F08F700A
:100120004BB1982F969596959695292F30E0220FF2
:10013000331F220F331F220F331F242B2BB988307C
:1001400008F087704BB1982F96959695292F30E03F
:10015000220F331F220F331F242B2BB9843008F0BA
:1001600083704BB1982F9695292F30E0220F331FC3
:10017000242B2BB9823008F081709BB1892B8BB96D
:1001800020E00BC084E68EBB90E004C08EB38150AB
:100190008EBB9F5F9C3CD0F32F5F243698F31BB837
:0601A0007BCFF894FFCFB5
:00000001FF
